:100000009CC10000CBC10000C9C10000C7C10000F5
:10001000C5C10000C3C10000C1C10000BFC10000D4
:10002000BDC10000A2C50000A0C500009EC5000023
:10003000B5C10000B3C10000B1C10000AFC10000F4
:10004000ADC1000065C50000A9C10000A7C1000046
:10005000A5C10000A3C10000A1C1000046C400006A
:100060009DC100000C94620A0C94390A97C10000EB
:1000700095C1000093C1000091C100008FC1000034
:100080001AC500008BC1000089C1000087C10000B3
:1000900085C1000083C1000081C100007FC1000054
:1000A0007DC100007BC10000D9C4000077C1000001
:1000B00075C1000073C1000071C10000A2C400003E
:1000C0006DC100006BC1000069C1000067C1000084
:1000D00065C1000063C1000061C100005FC1000094
:1000E0005DC10000E202E502D402D802DC021C037A
:1000F000E902ED02F302F702FB0201030503090323
:100100001C030F0313031703D70FAB0FE50FE50F06
:10011000E50FE50FE50FE50FE50FE50FEF0FE50F35
:10012000E50F9E0F9A0FCD0FE50FD10FC70F2C20B3
:100130004657205265762E00203D20456173795642
:10014000522033206D6F64756C6500203D20456141
:10015000737956522032206D6F64756C6500203DB6
:1001600020456173795652206D6F64756C6500206F
:100170003D205652626F74206D6F64756C6500454A
:1001800061737956522064657465637465642C20CC
:1001900076657273696F6E200045617379565220DF
:1001A0006E6F7420646574656374656421002D2D21
:1001B0002D0042726964676520636F6E6E656374BB
:1001C000696F6E2061626F72746564002D2D2D0061
:1001D00042726964676520636F6E6E656374696FF0
:1001E0006E2061626F72746564002D2D2D00427265
:1001F00069646765206E6F742072657175657374CC
:1002000065642C2072756E206E6F726D616C6C79F6
:100210000000002100240027002A002D00300033B8
:100220000001010000040107010A0100000A0B029D
:10023000090C0D0E08070304010000000000000077
:1002400000000000000000000000000000000000AE
:10025000000000000000001211100000000000006B
:10026000000000000000000000000000000000008E
:1002700000203D200000002200250028002B002E39
:10028000003100340002010000050108010B0100EB
:100290000020002300260029002C002F003200003F
:1002A0000100000301060109010505050507050810
:1002B000080808020202020A0A08080404040401E9
:1002C000010101010101010303030303030303040B
:1002D0000707070C0C0C0C0C0C0C0C02020202069B
:1002E000060606060606060B0B0B0B0B0B0B0B018B
:1002F0000210202008081020401020408002010237
:1003000001080402010102040810204080804020FE
:100310001008040201800402018040201008040239
:1003200001080402010102040810204080010204B7
:1003300008102040800032113E0E11241FBECFEF66
:10034000D1E2DEBFCDBF00E00CBF12E0A0E0B2E022
:10035000E2ECFCE200E00BBF02C007900D92AE3F62
:10036000B107D9F724E0AEEFB2E001C01D92AD3A7B
:10037000B207E1F711E0CCE9D1E000E006C0219737
:100380000109802FFE010E940F14CB39D10780E0B4
:100390000807A9F70E94480E0C94501631CE3FB7BB
:1003A000F8948091470390914803A0914903B0913C
:1003B0004A0326B5A89B05C02F3F19F00196A11D41
:1003C000B11D3FBFBA2FA92F982F8827820F911DEB
:1003D000A11DB11DBC01CD0142E0660F771F881F32
:1003E000991F4A95D1F708952091500330915103F8
:1003F0002817390771F490914E0380914F03981795
:1004000041F0E0914E03F0E0E250FD4F808190E03A
:1004100008958FEF9FEF089508951F93CF93DF9373
:10042000DC015C962D913C915D972115310539F4E5
:1004300081E090E013969C938E9312973DC0519665
:10044000ED91FC91529750969C915097892F8095F1
:100450001FB75E964C915E9741FB772770F941FD7F
:100460006095F8944081772311F0492B01C048230F
:100470004083E9012197F1F748E0508160FF02C015
:10048000592B01C058235083E9012197F1F7669554
:10049000415099F7772321F090818923808303C00D
:1004A0008081982B90831FBF5C968D919C915D9766
:1004B0000197F1F721E030E0C901DF91CF911F9161
:1004C000089520915003309151032817390769F49A
:1004D00080914F0320914E0390E0805C9F4F821BE0
:1004E000910960E470E00C94FC1380E090E00895C2
:1004F000209150033091510328173907B9F4909196
:100500004E0380914F03981789F0E0914E03F0E07D
:10051000E250FD4F808120914E0330E02F5F3F4F2E
:100520002F73332720934E0390E008958FEF9FEFB2
:100530000895089580E090E00895CF93DF9320918F
:100540004B03211106C08CE292E0DF91CF910C9415
:100550000F0BEC018AE090E00E942E0BCE01DF91A0
:10056000CF910C941B0B362F90E0FC01E55DFD4F05
:100570004491FC01E151FD4F2491FC01E755FD4FF1
:100580009491992309F46BC0442309F455C050E0B9
:10059000FA013197E231F10508F04EC08827EE5894
:1005A000FF4F8F4F0C940F14809180008F7707C0FE
:1005B000809180008F7D03C080918000877F809331
:1005C00080003AC084B58F7702C084B58F7D84BD2A
:1005D00033C08091B0008F7703C08091B0008F7DD1
:1005E0008093B00029C0809190008F7707C08091E0
:1005F00090008F7D03C080919000877F8093900052
:100600001BC08091A0008F7707C08091A0008F7DD4
:1006100003C08091A000877F8093A0000DC08091CF
:1006200020018F7707C0809120018F7D03C08091CA
:100630002001877F80932001E92FF0E0EE0FFF1F5C
:10064000EB58FD4FA591B4918FB7F894EC9131110F
:1006500003C020952E2301C02E2B2C938FBF08950D
:10066000CF92DF92EF92FF920F931F93CF93DF937E
:100670006C018B017A01EC01C25CDC4F888187FF41
:1006800004C0FB011182108224C08CE08C9D90017B
:100690008D9D300D11248881A901480F511D87FDC2
:1006A0005A9580917F0490E04817590794F4888107
:1006B000A901480F511D87FD5A95CA01FA01EE0F95
:1006C000FF1F8E0F9F1FFC01E151FC4F808186FDB3
:1006D00019C088818F5F88838CE08C9D90018D9DEF
:1006E000300D11248881A901480F511D87FD5A95AD
:1006F00080917F0490E048175907B4F488818C30CA
:100700003CF112C08881280F311D87FD3A95F9010F
:10071000EE0FFF1F2E0F3F1FF901E151FC4F8081AB
:1007200060E08F7320DFD5CFF8018081918104963E
:1007300080349C4918F480E49CE904C0F80180816D
:1007400091810496F701918380838FEF888344C061
:10075000F801408151818881B901680F711D87FDC1
:100760007A95CB01FB01EE0FFF1F8E0F9F1FFC013F
:10077000E151FC4F81819281840F951FF701918394
:1007800080838881A901480F511D87FD5A95CA01B0
:10079000FA01EE0FFF1F8E0F9F1FFC01E151FC4F6E
:1007A000808186FF19C08881280F311D87FD3A9509
:1007B000F901EE0FFF1F2E0F3F1FF901E151FC4F12
:1007C000808161E08F73DF91CF911F910F91FF9036
:1007D000EF90DF90CF90C7CEDF91CF911F910F9117
:1007E000FF90EF90DF90CF900895CF93DF9390E04C
:1007F000FC01E151FD4F2491FC01E755FD4F84912F
:10080000882361F190E0880F991FFC01EF5EFD4F96
:10081000C591D491FC01EB58FD4FA591B4916111A4
:1008200009C09FB7F8948881209582238883EC9132
:100830002E230BC0623061F49FB7F8943881822F69
:10084000809583238883EC912E2B2C939FBF06C029
:100850008FB7F894E8812E2B28838FBFDF91CF913B
:1008600008958F929F92AF92BF92CF92DF92EF92B4
:10087000FF926B017C0193DD4B015C01C114D1043B
:10088000E104F104E9F08BDDDC01CB018819990961
:10089000AA09BB09883E9340A105B10578F321E080
:1008A000C21AD108E108F10888EE880E83E0981E8C
:1008B000A11CB11CC114D104E104F10421F7DECF65
:1008C000FF90EF90DF90CF90BF90AF909F908F9070
:1008D00008952FB7F8946091430370914403809179
:1008E0004503909146032FBF08951F920F920FB6B4
:1008F0000F9211242F933F938F939F93AF93BF93A6
:100900008091430390914403A0914503B091460325
:100910003091420323E0230F2D3720F40196A11DCF
:10092000B11D05C026E8230F0296A11DB11D20931D
:1009300042038093430390934403A0934503B093F1
:1009400046038091470390914803A0914903B091D9
:100950004A030196A11DB11D80934703909348035C
:10096000A0934903B0934A03BF91AF919F918F9198
:100970003F912F910F900FBE0F901F9018958130CF
:10098000910581F41092800082E0809381001092A2
:10099000850010928400B19A80916F0082608093EC
:1009A0006F0008958230910569F41092900082E002
:1009B00080939100109295001092940088BB8093D0
:1009C000710008958330910569F41092A00082E0CF
:1009D0008093A1001092A5001092A40089BB80937F
:1009E00072000895892B61F41092200182E08093B7
:1009F000210110922501109224018ABB809373007B
:100A000008951F920F920FB60F9211240BB60F92FA
:100A10002F933F934F935F936F937F938F939F9306
:100A2000AF93BF93EF93FF9348E251E064E271E02C
:100A300080E090E015DEFF91EF91BF91AF919F9123
:100A40008F917F916F915F914F913F912F910F9077
:100A50000BBE0F900FBE0F901F9018951F920F9214
:100A60000FB60F9211240BB60F922F933F934F9313
:100A70005F936F937F938F939F93AF93BF93EF9306
:100A8000FF9348EA50E064EA70E083E090E0E8DD3C
:100A9000FF91EF91BF91AF919F918F917F916F9156
:100AA0005F914F913F912F910F900BBE0F900FBE12
:100AB0000F901F9018951F920F920FB60F9211244E
:100AC0000BB60F922F933F934F935F936F937F9348
:100AD0008F939F93AF93BF93EF93FF9348E950E0B9
:100AE00064E970E082E090E0BBDDFF91EF91BF919F
:100AF000AF919F918F917F916F915F914F913F91B6
:100B00002F910F900BBE0F900FBE0F901F90189556
:100B10001F920F920FB60F9211240BB60F922F93C4
:100B20003F934F935F936F937F938F939F93AF9375
:100B3000BF93EF93FF9348E850E064E870E081E0F2
:100B400090E08EDDFF91EF91BF91AF919F918F91DA
:100B50007F916F915F914F913F912F910F900BBEBD
:100B60000F900FBE0F901F9018951F920F920FB607
:100B70000F9211240BB60F922F933F934F935F93D5
:100B80006F937F938F939F93AF93BF93EF93FF9355
:100B9000E0915003F0915103309709F451C0968DC4
:100BA000A685B785858591FF04C09C91892329F48A
:100BB00047C09C91892309F043C0A389B4899C91C3
:100BC0008589809589238C93868997890197F1F788
:100BD000608D718DA685B785558538E020E0CB0105
:100BE0000197F1F7822F90E095958795282F4C91EA
:100BF000452309F02068315091F7868D81FD2095BD
:100C000080914F0390E001968F73992730914E03A6
:100C1000381749F0A0914F03B0E0A250BD4F2C937C
:100C200080934F0303C0868D8160868F828D938D64
:100C30000197F1F7A389B4899C918589892B8C93BD
:100C4000FF91EF91BF91AF919F918F917F916F91A4
:100C50005F914F913F912F910F900BBE0F900FBE60
:100C60000F901F901895E0915003F0915103E817F1
:100C7000F90769F4A389B4899C91858980958923B2
:100C80008C93109251031092500381E0089580E0FC
:100C90000895CF93DF9300D000D0CDB7DEB7809119
:100CA0004D03823041F12CF4882349F0813069F002
:100CB0006DC0833069F1853009F44FC067C0809101
:100CC0004C03811163C081E00FC080914C038130DF
:100CD00071F024F481115AC082E006C0823049F0DC
:100CE000843009F053C085E080934D034FC083E00A
:100CF000FBCF84E0F9CF80914C03882331F0813021
:100D000009F044C061E572E00FC067E472E017C00B
:100D100080914C03882331F0813009F037C065E6BB
:100D200072E00DC06CE572E0CE01019656D3CE01A3
:100D3000019603DC89819A810E94C01427C0CE01EC
:100D400001964BD386E990E089D4CE01019673D405
:100D500089819A810E94C01417C080914C03882316
:100D600041F0813099F460E08DE0FDDB8DE792E0A9
:100D700005C061E08DE0F7DB8FE692E050D468EECD
:100D800073E080E090E06DDD10924D0326960FB683
:100D9000F894DEBF0FBECDBFDF91CF910895EF92E3
:100DA000FF920F931F93CF93DF9361E08DE01DDDE2
:100DB00060E08DE0D8DB80918704803308F041C08B
:100DC00061E089E012DD80918704E82FF0E09F0167
:100DD000220F331FE20FF31FE151FC4F9081907CF3
:100DE0009960908310928804109289046CE00E94AC
:100DF000F0139CE0899FB001112440E050E09A017B
:100E0000260F371FF901EE0FFF1F2E0F3F1FF901AD
:100E1000E151FC4F908196FD07C04F5F5F4F4C3012
:100E2000510569F790E0ABDDE0918704F0E0CF0178
:100E3000880F991FE80FF91FE151FC4F80818064F2
:100E40008083E0916203F091630382E08083E0910C
:100E50005E03F0915F031082E0916003F091610303
:100E60008FEC808310926A03E0916603F091670330
:100E700086E08083E0916403F09165038081806166
:100E80008083E0916403F0916503808188608083B2
:100E9000E0916403F0916503808180688083E09134
:100EA0006403F091650380818F7D808302E080E19F
:100EB000F82E96E0E92EE0915203F0915303019051
:100EC000F081E02D69E982E593E01995C6E9D0E06B
:100ED00010E06AE070E080E090E0C3DCE091520353
:100EE000F09153030284F385E02D82E593E0199598
:100EF00097FDCBC0111120C08B3B910509F0C5C0F7
:100F0000E0915203F09153030190F081E02D6CECDD
:100F100082E593E0199561E070E080E090E0A1DC6B
:100F2000E0915203F09153030680F781E02D82E5B2
:100F300093E0199511E0A9C08D3D910531F5E0913F
:100F40005203F09153030190F081E02D6EEE82E5A3
:100F500093E0199561E070E080E090E082DCE09140
:100F60005203F09153030680F781E02D82E593E070
:100F7000199560E875E280E090E07ED5F3D480EDCD
:100F800091E0E4D48CEC91E08DC08A3A910509F0AF
:100F90007BC0E0915203F09153030190F081E02D6A
:100FA0006FEF82E593E0199561E070E080E090E0FA
:100FB00058DCE0915203F09153030680F781E02D55
:100FC00082E593E0199560E072EC81E090E054D501
:100FD00082E593E0A7D1E0916403F09165038081FD
:100FE0008F7E8083E0916403F09165038081877F29
:100FF0008083E0916403F091650380818F77808323
:10100000E0916403F091650380818F7D80838091FE
:101010006C0380936B03E0916203F09163030083A0
:10102000E0915E03F0915F031082E0916003F09124
:101030006103F08210926A03E0916603F091670306
:10104000E082E0916403F091650380818061808398
:10105000E0916403F0916503808188608083E09172
:101060006403F0916503808180688083E09164036C
:10107000F091650380818F7D808374D482EB91E051
:1010800065D48EEA91E00EC010E0219709F021CFDF
:1010900060E875E280E090E0EFD48EEE91E056D407
:1010A0008AEE91E053D4C5E082E699D388EC90E0D3
:1010B00057D38F369105A9F0C150B1F789E991E076
:1010C00045D4CAE0D0E082E593E08ED0CF9709F412
:1010D000F2CE64E670E080E090E0C3DB219799F700
:1010E000E2CF8FE791E0F6D3E1D3082E000C990B05
:1010F00025D4DCD3883014F480E00DD4D7D318166F
:101100001CF08FE691E00EC0D1D382301CF48EE546
:1011100091E008C0CBD388301CF48BE491E002C08E
:1011200088E391E0D7D38EE291E0D4D3BFD3877028
:101130006AE070E090E07DD389E751D380E04DD341
:1011400084E690E00DD38FE64AD386E432D384E67A
:1011500090E006D38CE643D381E42BD384E690E081
:10116000FFD210924D03DF91CF911F910F91FF900D
:10117000EF900895CF92DF92EF92FF920F931F931B
:10118000CF93DF936C017A018B01C0E0D0E0CE15E4
:10119000DF0589F0D8016D918D01D601ED91FC91AB
:1011A0000190F081E02DC6011995892B11F47E0183
:1011B00002C02196ECCFC701DF91CF911F910F9113
:1011C000FF90EF90DF90CF900895FC01538D448DF8
:1011D000252F30E0842F90E0821B930B541710F0E2
:1011E000CF96089501970895FC01918D828D9817EF
:1011F00061F0828DDF01A80FB11D5D968C91928DFB
:101200009F5F9F73928F90E008958FEF9FEF0895F7
:10121000FC01918D828D981731F0828DE80FF11DC0
:10122000858D90E008958FEF9FEF0895FC01918DDB
:10123000228D892F90E0805C9F4F821B91098F73D4
:101240009927089582E593E0F1DF21E0892B09F4E5
:1012500020E0822F0895FC01848DDF01A80FB11DCD
:10126000A35ABF4F2C91848D90E001968F739927DC
:10127000848FA689B7892C93A089B1898C918064C9
:101280008C93938D848D981306C00288F389E02D8A
:1012900080818F7D80830895EF92FF920F931F933B
:1012A000CF93DF93EC0181E0888F9B8D8C8D981319
:1012B00005C0E889F989808185FD23C0F62E0B8D54
:1012C00010E00F5F1F4F0F731127E02E8C8DE81277
:1012D0000BC00FB607FCFACFE889F989808185FF3A
:1012E000F5CFCE01B8DFF2CF8B8DFE01E80FF11DF7
:1012F000E35AFF4FF0820B8FEA89FB89808180627D
:1013000007C0EE89FF896083E889F989808180645C
:10131000808381E090E0DF91CF911F910F91FF904A
:10132000EF900895CF93DF93EC01888D8823C1F06F
:10133000EA89FB89808185FD05C0A889B9898C91DE
:1013400086FD0EC00FB607FCF5CF808185FFF2CF7A
:10135000A889B9898C9185FFEDCFCE017CDFE8CFDC
:10136000DF91CF91089580E090E0892B19F06ADF3A
:10137000811125C080E090E0892B41F080E090E071
:10138000892B21F00E94000081111CC080E090E0B8
:10139000892B41F080E090E0892B21F00E94000031
:1013A000811113C080E090E0892BA1F080E090E0F3
:1013B000892B81F00E94000081110AC008950E94CB
:1013C0000000D8CF0E940000E1CF0E940000EACFC9
:1013D0000C94000008950E943C16EF92FF920F9328
:1013E0001F93CF93DF93EC01198218821B821A821C
:1013F0001D821C8261157105A9F17B01FB01019021
:101400000020E9F731978F01061B170BB8016F5FBA
:101410007F4F80E090E00E945815009759F0998323
:1014200088831B830A832C813D81232B81F4FC015B
:1014300010820DC088819981009711F00E94C0141C
:10144000198218821D821C821B821A820BC01D8386
:101450000C83B701DF91CF911F910F91FF90EF9017
:101460000C944916DF91CF911F910F91FF90EF904F
:1014700008951F920F920FB60F9211240BB60F9280
:101480002F933F934F935F936F937F938F939F938C
:10149000AF93BF93EF93FF9382E593E0DCDEFF9180
:1014A000EF91BF91AF919F918F917F916F915F91DC
:1014B0004F913F912F910F900BBE0F900FBE0F9049
:1014C0001F9018951F920F920FB60F9211240BB612
:1014D0000F922F938F939F93EF93FF93E09162036B
:1014E000F09163038081E0916803F091690382FDCC
:1014F00012C0908180916B038F5F8F7320916C037A
:10150000821751F0E0916B03F0E0EE5AFC4F958F9B
:1015100080936B0301C08081FF91EF919F918F9128
:101520002F910F900BBE0F900FBE0F901F9018952C
:10153000009761F0FC0101900020E9F73197AF01BD
:10154000481B590BBC0182E593E014CE80E090E08B
:1015500008958F929F92AF92BF920F931F93CF9354
:10156000DF93CDB7DEB7A1970FB6F894DEBF0FBEFD
:10157000CDBF19A2423008F44AE08E010F5D1F4F23
:10158000842E912CA12CB12CA50194010E9426132C
:10159000E62FB901CA0101501109EA3014F4E05DE7
:1015A00001C0E95CD801EC93232B242B252B61F798
:1015B000C801BEDFA1960FB6F894DEBF0FBECDBF47
:1015C000DF91CF911F910F91BF90AF909F908F901F
:1015D0000895CF92DF92EF92FF92CF93DF936B014A
:1015E0007C01E0915203F09153030190F081E02DD2
:1015F0006DE282E593E01995EC0166277727CB0130
:101600006C197D098E099F094AE0A3DF8C0F9D1F8D
:10161000DF91CF91FF90EF90DF90CF900895CF931F
:10162000DF9386DFEC018CED92E082DF8C0F9D1F53
:10163000DF91CF910895CF93DF93FC0144815581D1
:101640006081718182E593E095DDEC018CED92E0A3
:101650006FDF8C0F9D1FDF91CF910895CF92DF92A6
:10166000EF92FF92DC01A03282E0B8070CF03CC0A0
:10167000B7FD06C0A53BB1052CF0A4EBB0E002C05D
:10168000A0E0B0E08091880428E830E06901C81A41
:10169000D10887FDD394CC0CDD1CCC0CDD1C0D2CAB
:1016A000000CEE08FF088091890428E532E0281B31
:1016B000310987FD3395220F331F220F331FA901F4
:1016C000330F660B770B9A01AB012C193D094E09BC
:1016D0005F09B6D724EB30E040E050E08BD7C20E74
:1016E000D31EE41EF51ED60190918704903398F521
:1016F0008091880448E850E0481B510987FD5395C4
:10170000440F551F440F551FA417B5078CF0809147
:10171000890428E532E0281B310987FD3395220F23
:10172000331F220F331FAD012A173B070CF4A90109
:1017300042505109440F551F2FB7F894892F90E05C
:10174000FC01EE0FFF1F8E0F9F1FFC01E151FC4FAC
:10175000528341832FBFFF90EF90DF90CF90089589
:10176000CF93DF93EC012097B9F0809180049091A2
:101770008104DC01ED91FC910084F185E02D199547
:10178000892B51F461E070E080E090E06AD81C168B
:101790001D064CF72197E7CF80918004909181043A
:1017A000DC01ED91FC910284F385E02DDF91CF9176
:1017B0001994CF93C82F61E070E080E090E051D899
:1017C0008091800490918104DC01ED91FC91019065
:1017D000F081E02D6C2FCF9119948F5BEACFCF93DE
:1017E000C82F8091800490918104DC01ED91FC91DF
:1017F0000680F781E02D19958091800490918104F5
:10180000DC01ED91FC910084F185E02D199518160D
:10181000190664F48091800490918104DC01ED91BB
:10182000FC910284F385E02D1995E6CF8C2FCF91A2
:10183000C0CFCF93DF93AB01672B61F4E0915203EC
:10184000F09153030190F081E02D682F82E593E041
:1018500019950DC0BC01990F880B990B4A305105A1
:1018600029F497FF02C0B5DE02C04AE072DEEC0147
:101870008CED92E05DDE8C0F9D1FDF91CF9108957E
:10188000CF93DF93EC0180E294DF84E690E068DFA1
:101890002FEB280F28839C012054310981E021324D
:1018A000310508F080E0DF91CF91089588E797DF58
:1018B00084E690E055DF8837910541F486E894E0AE
:1018C000DFDF882319F08091860408958FEF8093DD
:1018D000860408950F931F93CF93DF938C01C0E08C
:1018E000D0E0F801EC0FFD1F6491662371F0E091E8
:1018F0005203F09153030190F081E02D82E593E0D3
:101900001995892B11F02196ECCFCE01DF91CF9163
:101910001F910F910895CF93C82F81E760DF82E474
:1019200048DF8C2F5ADF84E690E01ADF21E08F3603
:10193000910509F020E0822FCF910895BC01990F05
:10194000880B990B97FD45CE4AE003CECF93DF93EA
:10195000C1DFEC018CED92E0EBDD8C0F9D1FDF9180
:10196000CF910895CF92DF92EF92FF920F931F9342
:10197000CF93DF930E9469046B017C01CFEFDFEF0F
:10198000E0915203F09153030084F185E02D82E54C
:1019900093E01995892B61F1E0915203F091530383
:1019A0000284F385E02D82E593E01995EC01CF9751
:1019B00041F40E9469046C157D058E059F0508F0B1
:1019C00051C08091800490918104DC01ED91FC91E3
:1019D0000190F081E02D6C2F19950E9469046B0134
:1019E0007C01B4E6CB0ED11CE11CF11CCFEFDFEF84
:1019F0008091800490918104DC01ED91FC91008440
:101A0000F185E02D1995892BB1F4CF3F2FEFD20747
:101A100009F4B6CF0E9469046C157D058E059F05FB
:101A200008F4AECFDF91CF911F910F91FF90EF900F
:101A3000DF90CF900895E0915203F091530300811D
:101A400011818091800490918104DC01ED91FC91E1
:101A50000284F385E02D1995682F82E593E0F80163
:101A60001995D3CF0E9469046B017C01E4E6CE0E88
:101A7000D11CE11CF11CCECFCF939B01AC01109285
:101A8000A5041092A4041092A3041092A204109230
:101A9000A1041092A00460E079E08DE390E0AAD563
:101AA000F9012430310518F0C901039702C081E023
:101AB00090E09093A7048093A60480919604C6EFCB
:101AC000C80FC43048F09EEC980F943028F092EC88
:101AD000980F983008F08CC0B901769567956431FD
:101AE000710518F06351710902C061E070E07093F4
:101AF000A1046093A004369720F0B90165507109E4
:101B000002C061E070E07093A3046093A204B90185
:101B1000660F771F260F371F369527953695279521
:101B20002D30310518F02C50310902C021E030E091
:101B30003093A5042093A404C43060F09EEC980F69
:101B4000943040F092EC980F983008F47BC0A0E0FD
:101B5000B0E07AC0A8E6B0E0E8E6F0E09081C430FA
:101B600018F08E53883010F081E001C084E0892B9A
:101B70008C938091960496EF980F943058F02EEC49
:101B8000280F243038F022EC280F283030F020E0E5
:101B900030E005C02BE630E002C02DE630E03093A7
:101BA0009E0420939D04943010F49AEF0BC082336E
:101BB00081F0833381F0843381F092EC980F983078
:101BC00070F492EC980F81E001C0880F9A95EAF7C3
:101BD00007C088E005C084E003C082E001C081E066
:101BE00080939F048091A6049091A7040197F1F738
:101BF0008091A4049091A504892B61F180915003F8
:101C00009091510324E08A38920721F1009709F05E
:101C10002AD88091A8048E7F8093A80410924F0345
:101C200010924E038AE894E09093510380935003FE
:101C3000E0919D04F0919E04908180919F04892BF6
:101C4000808308C0A8E6B0E0983008F485CFE0E0D3
:101C5000F0E084CFCF91089587E7C1DD80E0BDDD5E
:101C600080E0BBDD80E5A5DD88E893E179DD21E05A
:101C70008F36910509F020E0822F08958EE192E0E1
:101C800090938B0480938A048AE894E00C94330642
:101C9000CF93DF93CDB7DEB7A3970FB6F894DEBF2F
:101CA0000FBECDBF789484B5826084BD84B5816059
:101CB00084BD85B5826085BD85B5816085BD809117
:101CC0006E00816080936E0010928100809181008F
:101CD0008260809381008091810081608093810087
:101CE000809180008160809380008091B100846049
:101CF0008093B1008091B00081608093B0008091AA
:101D00009100826080939100809191008160809326
:101D10009100809190008160809390008091A1005B
:101D200082608093A1008091A10081608093A100D6
:101D30008091A00081608093A00080912101826049
:101D40008093210180912101816080932101809104
:101D5000200181608093200180917A0084608093CB
:101D60007A0080917A00826080937A0080917A0074
:101D7000816080937A0080917A00806880937A00F5
:101D80001092C1000CD800E280917B00877F809385
:101D90007B0080E480937C0080917A008064809353
:101DA0007A0080917A0086FDFCCF60917800809166
:101DB000790070E0782B072E000C880B990B2BD341
:101DC00020E030E040EA5BE361D39B01AC0160E0DE
:101DD00070E080E89FE36BD420E030E040E551E420
:101DE00055D3CDD47B0168EE73E080E090E00E9493
:101DF000310480918704803308F042C061E089E0BB
:101E00000E94F50380918704E82FF0E09F01220FE4
:101E1000331FE20FF31FE151FC4F9081907C9960DA
:101E2000908310928804109289046CE0D9D49CE0CD
:101E3000899FB001112440E050E09A01260F371F1E
:101E4000F901EE0FFF1F2E0F3F1FF901E151FC4F6B
:101E5000908196FD08C04F5F5F4F4C30510569F788
:101E600090E00E94BF04E0918704F0E0CF01880F6A
:101E7000991FE80FF91FE151FC4F80818064808336
:101E8000EBE0EE16F10424F481E080934B0302C0F2
:101E900010924B030BDD883014F481E03CDD80911F
:101EA0004D0387FF11C08CE892E042DB80914D0327
:101EB0006AE070E0992781950CF49095BADC109156
:101EC0004D03119589E60EC083EA92E031DB8091E3
:101ED0004D036AE070E0082E000C990BAADC10910B
:101EE0004D0384E67CDC812F78DC82E593E07CD9AD
:101EF000CF9719F40E94CF068CC080E090E030DCD0
:101F000087FDF3CF8BA31092840410928304109268
:101F10008204082E000C990BAA0BBB0BFC01E556A2
:101F2000F109E331F10508F050C08827EC57FF4F65
:101F30008F4F75C480918304826003C080918304B5
:101F4000816080938304CE0183969ADC882309F410
:101F50003CC08BA119C08091830480688093830466
:101F6000CE0183968DDC882381F18BA18295880F29
:101F7000807E80938204CE01839682DC882329F1BF
:101F8000909182048BA1892B8093820428C0809138
:101F9000840481608093840422C0809183048860DB
:101FA00003C08091830480618093830418C0809172
:101FB0008304846080938304CE01839661DC88234C
:101FC00021F08BA18295807FD4CF1092840410924F
:101FD000830480E08460809383041092820466DC32
:101FE000883014F480E097DC9091830491FF13C053
:101FF0008091820480934C0381110FC080914D0326
:1020000081110DC029DE8BEB92E009DB81E080932A
:102010004D03A9D9B9CE8FEFEDCF87FD72C01CDE7D
:1020200087EC92E085DA80914C03082E000C990B26
:1020300085DC10914D0311958AE7D1DB812FCDDB33
:1020400084E690E08DDB8A37910509F0F4C0CE017B
:10205000019616DC882309F4EEC0CE01019610DC4F
:10206000882309F4E8C01981C12CD12CC11608F0CD
:10207000E2C0CE01829604DCB82E882309F4DBC0CE
:102080008AA18F3F09F40AA3CE0101967C018AA19F
:1020900018160CF5CE018196F3DB882309F4CBC02A
:1020A00099A19D3171F4CE018196EADB882309F470
:1020B000C2C099A1905DF70190839AA191509AA313
:1020C00003C09F5BF70190839AA191509AA3FFEF01
:1020D000EF1AFF0ADCCFF7011082BB2009F4ABC076
:1020E0009601FFEFCF1ADF0A80914C03082E000CF7
:1020F000990B2817390709F0B9CF81E792E0EADB9D
:1021000093C090FF03C08091820401C08FEF809341
:102110004C0387FD93C0A0DD8EEC92E009DA80913C
:102120004C03082E000C990B09DCF0904C03109125
:102130004D0380E754DB81E4810F3BDB8091850414
:10214000181789F0109385048091860488302CF04C
:1021500067E270E080E090E004C063E170E080E05E
:1021600090E00E9431048F2D38DB84E690E0F8DAAD
:102170008436910509F05CC0CE01819681DB88230D
:1021800009F456C089A11092840410928304982FF8
:10219000987121E009F420E09091830420FB96F9E6
:1021A00083FB222720F99E7F82958170922B80FBF2
:1021B00091F990938304CE01819662DB8823C1F16B
:1021C00089A180938204CE0181965ADBD82E882380
:1021D00079F119A11F3F09F410E2CE0101967C01AB
:1021E0001116DCF4CE0181964BDB882309F199A10D
:1021F0009D3159F4CE01819643DB8823C9F099A122
:10220000905DF7019083115003C09F5BF7019083AD
:102210001150FFEFEF1AFF0AE3CFF7011082DD2024
:1022200039F088ED92E084D9CE010196F8D903C047
:102230008CED92E07DD90E944906EBCE93FF03C05E
:102240008FED92E0ECD98091830482FFE2CEE090A2
:102250008204F12C87EF92E06BD960E170E0C70156
:10226000E8DAD7CE109255031092540388EE93E02B
:10227000A0E0B0E08093560390935703A0935803D7
:10228000B09359032CE032E0309353032093520370
:1022900025EC30E030935F0320935E0324EC30E0C4
:1022A000309361032093600320EC30E030936303AC
:1022B0002093620321EC30E03093650320936403A4
:1022C00022EC30E0309367032093660326EC30E085
:1022D000309369032093680310926B0310926C0390
:1022E00010926D0310926E0310928D0410928C0464
:1022F00080938E0490938F04A0939004B0939104E4
:102300008EE192E090938B0480938A041092A10452
:102310001092A0041092A3041092A2041092A5049B
:102320001092A4041092A7041092A6046091A8042D
:102330006E7F6D7F6093A8046695617081E0682769
:102340008DE00E94B30261E08DE00E94F503ECEFA6
:10235000F2E0E491E0939A04E6EBF2E0E491F0E03D
:10236000EE0FFF1FEB58FD4F8591949190939C04C5
:1023700080939B0460E08CE00E94F5038091A804A8
:1023800081FD04C061E08CE00E94B3028CE0809388
:102390009604EBEFF2E0E491E0939704E5EBF2E0D2
:1023A000E491F0E0EE0FFF1FE157FD4F859194910E
:1023B000909399048093980480917F048033A0F4D3
:1023C00091E0980F90937F048093870490E0FC0144
:1023D000EE0FFF1F8E0F9F1FFC01E151FC4F88EB9A
:1023E0009BE09283818303C08FEF809387048AE808
:1023F00094E090938104809380048FEF8093820413
:102400008093850480938604109284041092830440
:102410000895E89409C097FB3EF4909580957095D7
:1024200061957F4F8F4F9F4F9923A9F0F92F96E920
:10243000BB279395F695879577956795B795F11195
:10244000F8CFFAF4BB0F11F460FF1BC06F5F7F4F32
:102450008F4F9F4F16C0882311F096E911C0772344
:1024600021F09EE8872F762F05C0662371F096E84D
:10247000862F70E060E02AF09A95660F771F881F1C
:10248000DAF7880F9695879597F908950BD078C05D
:1024900069D028F06ED018F0952309F05AC05FC0BB
:1024A0001124A2C07ED0A0F3959FD1F3950F50E0E8
:1024B000551F629FF001729FBB27F00DB11D639FF6
:1024C000AA27F00DB11DAA1F649F6627B00DA11D9C
:1024D000661F829F2227B00DA11D621F739FB00D42
:1024E000A11D621F839FA00D611D221F749F3327B2
:1024F000A00D611D231F849F600D211D822F762F4B
:102500006A2F11249F5750408AF0E1F088234AF047
:10251000EE0FFF1FBB1F661F771F881F9150504093
:10252000A9F79E3F510570F014C05EC05F3FECF309
:10253000983EDCF3869577956795B795F795E7957F
:102540009F5FC1F7FE2B880F911D9695879597F990
:10255000089597F99F6780E870E060E008959FEF25
:1025600080EC089500240A9416161706180609062A
:10257000089500240A9412161306140605060895F9
:10258000092E0394000C11F4882352F0BB0F40F481
:10259000BF2B11F460FF04C06F5F7F4F8F4F9F4FC1
:1025A000089557FD9058440F551F59F05F3F71F043
:1025B0004795880F97FB991F61F09F3F79F08795AA
:1025C0000895121613061406551FF2CF4695F1DF33
:1025D00008C0161617061806991FF1CF86957105C3
:1025E000610508940895E894BB2766277727CB01F7
:1025F00097F90895052E97FB16F400940FD057FD18
:1026000005D024D007FC02D046F408C05095409570
:10261000309521953F4F4F4F5F4F0895909580958E
:10262000709561957F4F8F4F9F4F089531D0A59F33
:10263000900DB49F900DA49F800D911D11240895BD
:10264000B7FFF4CFF3DF821B930B0895A1E21A2E9C
:10265000AA1BBB1BFD010DC0AA1FBB1FEE1FFF1F46
:10266000A217B307E407F50720F0A21BB30BE40B96
:10267000F50B661F771F881F991F1A9469F76095DD
:102680007095809590959B01AC01BD01CF01089597
:10269000A29FB001B39FC001A39F700D811D1124A3
:1026A000911DB29F700D811D1124911D08950CD0B4
:1026B00067CF5FDF40F056DF30F021F45F3F19F065
:1026C00048CF511191CF4BCF6CDF98F39923C9F3C9
:1026D0005523B1F3951B550BBB27AA276217730728
:1026E000840738F09F5F5F4F220F331F441FAA1FDC
:1026F000A9F333D00E2E3AF0E0E830D0915050409C
:10270000E695001CCAF729D0FE2F27D0660F771F49
:10271000881FBB1F261737074807AB07B0E809F02B
:10272000BB0B802DBF01FF2793585F4F2AF09E3FC0
:10273000510568F00ECF58CF5F3FECF3983EDCF3C5
:10274000869577956795B795F7959F5FC9F7880F39
:10275000911D9695879597F90895E1E0660F771F8B
:10276000881FBB1F621773078407BA0720F0621B1C
:10277000730B840BBA0BEE1F88F7E095089504D015
:102780006894B11131CF089514DF88F09F5790F00D
:10279000B92F9927B751A0F0D1F0660F771F881F86
:1027A000991F1AF0BA95C9F712C0B13081F01BDF3A
:1027B000B1E0089518CF672F782F8827B85F39F0D8
:1027C000B93FCCF3869577956795B395D9F73EF4E5
:1027D00090958095709561957F4F8F4F9F4F08958D
:1027E000991B79E004C0991F961708F0961B881F63
:1027F0007A95C9F78095089597FB072E16F40094F3
:1028000006D077FD08D013D007FC05D03EF4909594
:1028100081959F4F0895709561957F4F0895EE0FB4
:10282000FF1F881F8BBF0790F691E02D1994AA1BFC
:10283000BB1B51E107C0AA1FBB1FA617B70710F0AB
:10284000A61BB70B881F991F5A95A9F780959095DD
:10285000BC01CD010895CF93DF938230910510F430
:1028600082E090E0E091AB04F091AC0420E030E035
:10287000C0E0D0E0309711F14081518148175907ED
:10288000C0F04817590761F482819381209719F0AD
:102890009B838A832BC09093AC048093AB0426C0A7
:1028A0002115310519F04217530718F49A01BE019A
:1028B000DF01EF010280F381E02DDCCF211531052E
:1028C00009F1281B390B2430310590F412968D91B3
:1028D0009C9113976115710521F0FB01938382830D
:1028E00004C09093AC048093AB04FD01329644C0C5
:1028F000FD01E20FF31F81939193225031092D9333
:102900003C933AC02091A9043091AA04232B41F4AE
:1029100020910202309103023093AA042093A9046B
:1029200020910002309101022115310541F42DB7AB
:102930003EB74091040250910502241B350BE091F3
:10294000A904F091AA04E217F307A0F42E1B3F0B91
:102950002817390778F0AC014E5F5F4F2417350711
:1029600048F04E0F5F1F5093AA044093A90481932F
:10297000919302C0E0E0F0E0CF01DF91CF910895A4
:102980000F931F93CF93DF93009709F48CC0FC0142
:102990003297138212820091AB041091AC0401159E
:1029A000110581F420813181820F931F2091A904A8
:1029B0003091AA042817390779F5F093AA04E09317
:1029C000A90471C0D80140E050E0AE17BF0750F431
:1029D00012962D913C911397AD012115310509F106
:1029E000D901F3CF9D01DA013383228360817181A4
:1029F000860F971F8217930769F4EC0128813981AC
:102A0000260F371F2E5F3F4F318320838A819B81A2
:102A100093838283452B29F4F093AC04E093AB04B9
:102A200042C01396FC93EE931297ED014991599190
:102A30009E01240F351FE217F30771F48081918105
:102A4000840F951F029611969C938E938281938199
:102A500013969C938E931297E0E0F0E0D8011296C3
:102A60008D919C911397009719F0F8018C01F6CF86
:102A70008D919C9198012E5F3F4F820F931F209163
:102A8000A9043091AA042817390769F4309729F46A
:102A90001092AC041092AB0402C013821282109305
:102AA000AA040093A904DF91CF911F910F9108957B
:102AB0006F927F928F929F92AF92BF92CF92DF924E
:102AC000EF92FF920F931F93CF93DF93EC01009748
:102AD00081F4CB01DF91CF911F910F91FF90EF9087
:102AE000DF90CF90BF90AF909F908F907F906F902E
:102AF000B2CEFC01E60FF71F9C0122503109E2170C
:102B0000F30708F4A8C0D9010D911C91119706177D
:102B10001707A8F00530110508F49BC0C8010497F9
:102B20008617970708F495C002501109061B170B6A
:102B3000019311936D937C93CF0122DF8AC05B01D7
:102B4000A01AB10A4C01800E911EA091AB04B09165
:102B5000AC0440E050E0E12CF12C109709F44AC09D
:102B6000A815B905D1F56D907C901197630182E0AD
:102B7000C80ED11CCA14DB0480F1A3014A195B09F9
:102B80006A0182E0C80ED11C1296BC90129713966F
:102B9000AC91B5E0CB16D10440F0B282A38351834F
:102BA0004083D9016D937C930AC00E5F1F4FC30110
:102BB000800F911FF90191838083EB2DFA2FE1148F
:102BC000F10431F0D7011396FC93EE93129741C0B4
:102BD000F093AC04E093AB043CC08D919C911197B1
:102BE0004817590708F4AC017D0112960D90BC916D
:102BF000A02DB3CF8091A9049091AA0488159905BE
:102C0000E1F446175707C8F4809100029091010241
:102C1000009741F48DB79EB7409104025091050290
:102C2000841B950BE817F907B0F4F093AA04E0931E
:102C3000A904F901718360830CC0CB010CDE7C0117
:102C4000009749F0A801BE011BD0CE0199DEC70153
:102C500004C0CE0102C080E090E0DF91CF911F91CF
:102C60000F91FF90EF90DF90CF90BF90AF909F902B
:102C70008F907F906F90089581E090E0F89410C05D
:102C8000FB01DC0102C001900D9241505040D8F789
:102C90000895FB01DC0101900D920020E1F70895F9
:102CA00011E0CCE9D1E000E005C0802FFE01B7DDE6
:102CB0002196011DCD39D10780E00807B1F7F894BE
:022CC000FFCF44
:102CC2000000AD0480006400000000004C09BA0856
:102CD200E50892091609F4080809000000000D022F
:102CE200BA089A020C0261027802F4014E6F742053
:102CF200436C6F736520456E6F75676820546F2053
:102D020053656E736F7200436C6F7365446F6F72BD
:102D120000556E6C6F636B446F6F72004F70656E1F
:102D22004761746500436C6F736547617465004C5D
:102D3200494748545320415245204F4E004C494781
:102D420048545320415245204F4646005361792052
:102D52006120776F726420696E20576F72647365A9
:102D6200742000536179206120636F6D6D616E6420
:102D720020696E2047726F75702000576F72643A37
:102D820020524F424F5400576F72643A2000436FF3
:102D92006D6D616E643A2000203D20000D0A0054E2
:102DA200696D6564206F75742C2074727920616777
:0E2DB20061696E2E2E2E004572726F72200027
:00000001FF
